:020000040800F2
:10000000005000203D030008D9020008E10200086A
:10001000E9020008F1020008F902000800000000EF
:1000200000000000000000000000000001030008C4
:100030000D03000800000000190300082503000854
:100040008503000885030008850300088503000870
:100050008503000885030008850300088503000860
:100060008503000885030008850300088503000850
:100070008503000885030008850300088503000840
:100080008503000885030008850300088503000830
:100090008503000885030008850300088503000820
:1000A0008503000885030008850300088503000810
:1000B0008503000885030008850300088503000800
:1000C00085030008850300088503000885030008F0
:1000D00085030008850300088503000885030008E0
:1000E0008503000885030008850300080000000060
:1000F0000000000000000000000000000000000000
:0C01000000000000000000005FF808F1A3
:10010C0010B5054C237833B9044B13B10448AFF345
:10011C0000800123237010BD0400002000000000AB
:10012C00F403000808B5034B1BB103490348AFF3B4
:10013C00008008BD0000000008000020F403000847
:10014C0080B582B000AF00F02FF800F0A3F8124891
:10015C0000F078F800F08CF80346FB71FB79184638
:10016C0000F05AF8FB79312B09D10C4BDB680B4AA8
:10017C0043F00103D3600A4800F064F8EAE7FB7926
:10018C00302BE7D1054BDB68044A23F00103D36025
:10019C00044800F057F8DDE70C04000800080140A3
:1001AC001C0400082C04000880B400AF174B9B699A
:1001BC00164A43F4804343F004039361144B5B6889
:1001CC00134A23F0F0035360114B5B68104A43F061
:1001DC00B00353600E4B5B680D4A23F4706353609D
:1001EC000B4B5B680A4A43F480635360094B40F243
:1001FC0041329A60074BDB68064A43F4005343F0E4
:10020C000C03D36000BFBD4680BC70470010024099
:10021C00000801400038014080B483B000AF0346B1
:10022C00FB7100BF064B1B6803F08003002BF9D059
:10023C00034AFB79536000BF0C37BD4680BC704746
:10024C000038014080B582B000AF786006E07B6872
:10025C005A1C7A601B781846FFF7DEFF7B681B7808
:10026C00002BF4D100BF00BF0837BD4680BD000095
:10027C0080B400AF00BF064B1B6803F02003002BBB
:10028C00F9D0034B5B68DBB21846BD4680BC7047A7
:10029C000038014080B400AF0A4B9B69094A43F017
:1002AC0004039361084B1B68074A23F00F03136088
:1002BC00054B1B68044A43F00103136000BFBD46A5
:1002CC0080BC7047001002400008014080B400AFB1
:1002DC0000BFFDE780B400AF00BFFDE780B400AF06
:1002EC0000BFFDE780B400AF00BFFDE780B400AFF6
:1002FC0000BFFDE780B400AF00BFBD4680BC7047B7
:10030C0080B400AF00BFBD4680BC704780B400AF66
:10031C0000BFBD4680BC704780B500AF00F02EF822
:10032C0000BF80BD80B400AF00BFBD4680BC70472D
:10033C00FFF7F8FF0B480C490C4A002302E0D45895
:10034C00C4500433C4188C42F9D3094A094C002315
:10035C0001E013600432A242FBD300F021F8FFF756
:10036C00EFFE704700000020040000204404000849
:10037C000400002024000020FEE7000080B400AF41
:10038C00054B1B781A46054B1B681344034A136034
:10039C0000BFBD4680BC704700000020200000203C
:1003AC0070B500260C4D0D4C641BA410A64209D14F
:1003BC0000F01AF800260A4D0A4C641BA410A64241
:1003CC0005D170BD55F8043B98470136EEE755F85A
:1003DC00043B98470136F2E73C0400083C04000853
:1003EC003C04000840040008F8B500BFF8BC08BC89
:1003FC009E467047F8B500BFF8BC08BC9E467047D7
:10040C00554152542052656164790D0A0000000078
:10041C000D0A4C4544206973204F4E0D0A00000014
:10042C000D0A4C4544206973204F46460D0A0000C6
:04043C003101000882
:040440000D010008A2
:0404440001000000B3
:040000050800033DAF
:00000001FF
